:100000000C942A000C943C000C943C000C943C0092
:100010000C943C000C943C000C943C000C943C0070
:100020000C943C000C943C000C943C000C943C0060
:100030000C943C000C943C000C943C000C943C0050
:100040000C943C000C943C000C943C000C943C0040
:100050000C943C0011241FBECFE5D8E0DEBFCDBF1D
:1000600020E0A0E6B0E001C01D92A436B207E1F79F
:100070000E943E000C9479000C9400008FEF8ABB24
:1000800017BA84BB86B38E3FE9F7809162009091E6
:10009000630001968F3F910509F02CF49093630063
:1000A0008093620016C010926300109262008091EB
:1000B00060009091610001968F3F910509F02CF44A
:1000C000909361008093600004C0109261001092D0
:1000D0006000809162008BBB8091600085BB2FE740
:1000E00089EA93E0215080409040E1F700C0000091
:0600F000C9CFF894FFCF18
:00000001FF
